:020000040000FA
:100000000C94B2000C9483050C945C050C94DA00FB
:100010000C94DA000C94DA000C94DA000C94DA00F8
:100020000C94DA000C94DA000C94DA000C94DA00E8
:100030000C94DA000C94DA000C94DA000C94DA00D8
:100040000C9412050C94DA000C94E0040C94BA049D
:100050000C94DA000C94DA000C94DA000C94DA00B8
:100060000C94DA000C94DA00000000002400270051
:100070002A00000000002300260029005265616468
:10008000790043594B4D0072636D6D004469726590
:1000900063545600472E492E4361626C65005361DC
:1000A0006D73756E673336004E454378004A56438C
:1000B0000050616E61736F6E6963204F6C64005213
:1000C00043360052433500536F6E79004E4543006E
:1000D000556E6B6E6F776E00556E7375700041755F
:1000E000746F20526573756D656400206269747366
:1000F00029200020280020416472733A00293A2008
:1001000056616C75653A0028004465636F646564E8
:100110002000313030307D3B002C200000000000FA
:10012000250028002B000404040404040404020233
:100130000202020203030303030301020408102066
:100140004080010204081020010204081020000071
:100150000008000201000003040700000000000086
:100160000000DA0511241FBECFEFD8E0DEBFCDBFFF
:1001700011E0A0E0B1E0E0E5F5E102C005900D92EC
:10018000AC36B107D9F725E0ACE6B1E001C01D926D
:10019000AC35B207E1F710E0C2EBD0E004C0219724
:1001A000FE010E94970AC13BD107C9F70E9433069E
:1001B0000C94A60A0C940000CF92DF92EF92FF926B
:1001C000CF93DF93EC01072E000C880B990B0E9454
:1001D00046096B017C0120E030E040E45FE30E94CF
:1001E000AA090E941509C617D70770F020E030E071
:1001F00040EA5FE3C701B6010E94AA090E941509FF
:1002000021E06C177D0708F420E0822FDF91CF9169
:10021000FF90EF90DF90CF900895CF93DF931092EF
:100220001B0280911C02E0913F05F091400588235C
:1002300031F110921C02DF0190E080E02091410535
:10024000309142058217930728F59C01220F331F36
:10025000ED01C20FD31F48815981609159057091FA
:100260005A0580FF03C07195619571092E0F3F1FDC
:10027000460F571FE901598348830196DFCF8091CC
:100280003D0590913E059093420580934105ADE177
:10029000B2E0D2CF10921A0281E0DF91CF9108959F
:1002A000AF92BF92CF92DF92EF92FF920F931F9384
:1002B000CF93DF936C017B018B01040F151FEB01C2
:1002C0005E01AE18BF08C017D10759F06991D60179
:1002D000ED91FC910190F081E02DC6010995892BEB
:1002E00079F7C501DF91CF911F910F91FF90EF90AA
:1002F000DF90CF90BF90AF900895FC01538D448D57
:10030000252F30E0842F90E0821B930B541710F0C0
:10031000CF96089501970895FC01918D828D9817CD
:1003200061F0A28DAE0FBF2FB11D5D968C91928DA5
:100330009F5F9F73928F90E008958FEF9FEF0895D6
:10034000FC01918D828D981731F0828DE80FF11D9F
:10035000858D90E008958FEF9FEF0895FC01918DBA
:10036000228D892F90E0805C9F4F821B91098F73B3
:100370009927089586E791E00E94AE0121E0892B3C
:1003800009F420E0822F089580E090E0892B29F085
:100390000E94BA0181110C9400000895FC01A48D03
:1003A000A80FB92FB11DA35ABF4F2C91848D90E097
:1003B00001968F739927848FA689B7892C93A0897A
:1003C000B1898C91837080648C93938D848D981304
:1003D00006C00288F389E02D80818F7D8083089597
:1003E000EF92FF920F931F93CF93DF93EC0181E085
:1003F000888F9B8D8C8D98131AC0E889F98980812C
:1004000085FF15C09FB7F894EE89FF896083E8895E
:10041000F98980818370806480839FBF81E090E050
:10042000DF91CF911F910F91FF90EF900895F62EDD
:100430000B8D10E00F5F1F4F0F731127E02E8C8D77
:100440008E110CC00FB607FCFACFE889F9898081BC
:1004500085FFF5CFCE010E94CE01F1CFEB8DEC0FE1
:10046000FD2FF11DE35AFF4FF0829FB7F8940B8FD9
:10047000EA89FB8980818062CFCF0F931F93CF934E
:10048000DF938C01D0E0C0E0F801EC0FFD1F649118
:10049000662341F086E791E00E94F001892B11F07C
:1004A0002196F2CFCE01DF91CF911F910F91089548
:1004B000CF93DF93EC01888D8823B9F0AA89BB899B
:1004C000E889F9898C9185FD03C0808186FD0DC086
:1004D0000FB607FCF7CF8C9185FFF2CF808185FFA7
:1004E000EDCFCE010E94CE01E9CFDF91CF910895EB
:1004F000833081F028F4813099F08230A9F008959A
:100500008730A9F08830C9F08430B1F48091800040
:100510008F7D03C0809180008F7780938000089545
:1005200084B58F7784BD089584B58F7DFBCF80918E
:10053000B0008F778093B00008958091B0008F7DD8
:10054000F9CF1F93CF93DF93EBE5F1E09491E7E4CC
:10055000F1E0D491E3E3F1E0C491CC23B9F0182F9A
:10056000992319F0892F0E947802EC2FF0E0EE0F0A
:10057000FF1FE45EFE4FA591B4918FB7F894EC9104
:10058000111108C0D095DE23DC938FBFDF91CF918E
:100590001F910895DE2BF8CFCF93DF93282F30E003
:1005A000F901E25BFE4F8491F901E65CFE4FD491C4
:1005B000F901EA5DFE4FC491CC23A1F081110E94A4
:1005C0007802EC2FF0E0EE0FFF1FEE58FF4FA591E1
:1005D000B491EC91ED2381E090E009F480E0DF91AB
:1005E000CF91089580E090E0FACF3FB7F8948091E2
:1005F000720190917301A0917401B091750126B5BB
:10060000A89B05C02F3F19F00196A11DB11D3FBF4A
:10061000BA2FA92F982F8827BC01CD01620F711D19
:10062000811D911D42E0660F771F881F991F4A9513
:10063000D1F708950895FC01128213821482158265
:1006400016821086178211860895FC0184818230FB
:1006500068F4E82FF0E0813089F0E898EE0FFF1F92
:10066000E050FF4F8AE193E09183808310921A0259
:1006700010921C0284E0809347050895E998EECF1C
:10068000CF93DF93AC0180911B0281115BC081E0AD
:1006900080931A0280914705843029F080916C0183
:1006A000882309F44FC02091130230E0F901E65C81
:1006B000FE4F94912A5D3E4FF90124912223C1F00F
:1006C00030E0220F331FF901E859FF4FC591D49153
:1006D000F901E45EFE4FA591B4912FB7F8943881EB
:1006E000892F809583238883EC919E2B9C932FBF29
:1006F000EA0110923E0510923D0581E08093470586
:1007000010926C010E94F5026093430570934405BA
:1007100080934505909346058C81823098F4E82FAC
:10072000F0E0EE0FFF1FE050FF4F2FE234E0318387
:100730002083813051F0809169008C7F81608093AB
:100740006900E89ADF91CF91089580916900837FD5
:10075000846080936900E99AF5CFFC010190002044
:10076000E9F73197AF01481B590BBC0186E791E0CF
:100770000C9450018F929F92AF92BF920F931F9350
:10078000CF93DF93CDB7DEB7A1970FB6F894DEBF56
:100790000FBECDBF19A2423008F44AE08E010F5DB2
:1007A0001F4F842E912CB12CA12CA50194010E94E5
:1007B0003F0AE62FB901CA01EA30F4F4E05DD8013E
:1007C000EE938D01232B242B252B79F790E080E0ED
:1007D000109719F0CD010E94AD03A1960FB6F894C1
:1007E000DEBF0FBECDBFDF91CF911F910F91BF90A4
:1007F000AF909F908F900895E95CE1CFCF93C1E0D7
:10080000C0931B0284E080934705809114028823E3
:1008100021F180911A02882301F140913D05509108
:100820003E05440F551F6DE172E080913F059091A8
:1008300040050E949D0A80913D0590913E05909350
:1008400042058093410510921A02C0931C02109237
:100850003E0510923D05C0934705CF910895CF9274
:10086000DF92EF92FF92CF93DF9300D000D0CDB70D
:10087000DEB70E94F50269837A838B839C83C980EB
:10088000DA80EB80FC808091430590914405A09133
:100890004505B0914605C81AD90AEA0AFB0A8091B3
:1008A0004705843079F18530C1F1813049F4809178
:1008B00013020E94CC02892B29F585E0809347051D
:1008C000E0913D05F0913E05EE0FFF1FE35EFD4F09
:1008D000D182C08289819A81AB81BC81809343059A
:1008E00090934405A0934505B093460580913D053E
:1008F00090913E05019690933E0580933D05803989
:10090000914050F50F900F900F900F90DF91CF9185
:10091000FF90EF90DF90CF90089580911902882387
:1009200049F080913D0590913E0580FF21C081E016
:100930000E94A10280913D0590913E0580FDC0CFAF
:100940008091150290911602B0E0A0E08C159D05F3
:10095000AE05BF0508F0B4CF0F900F900F900F9029
:10096000DF91CF91FF90EF90DF90CF900C94FE033A
:1009700080E0DECF1F920F920FB60F9211242F93BB
:100980003F934F935F936F937F938F939F93AF9317
:10099000BF93EF93FF9386E791E00E94CE01FF9112
:1009A000EF91BF91AF919F918F917F916F915F91E7
:1009B0004F913F912F910F900FBE0F901F90189560
:1009C0001F920F920FB60F9211242F938F939F9324
:1009D000EF93FF93E0918601F09187018081E09190
:1009E0008C01F0918D0182FD1BC0908180918F015F
:1009F0008F5F8F7320919001821741F0E0918F01FA
:100A0000F0E0EA58FE4F958F80938F01FF91EF91B0
:100A10009F918F912F910F900FBE0F901F9018955F
:100A20008081F4CF1F920F920FB60F9211242F9353
:100A30003F938F939F93AF93BF9380916E0190915B
:100A40006F01A0917001B091710130916D0123E0AF
:100A5000230F2D3758F50196A11DB11D20936D016F
:100A600080936E0190936F01A0937001B093710118
:100A70008091720190917301A0917401B091750100
:100A80000196A11DB11D8093720190937301A093F3
:100A90007401B0937501BF91AF919F918F913F9178
:100AA0002F910F900FBE0F901F90189526E8230FDF
:100AB0000296A11DB11DD2CF1F920F920FB60F92B9
:100AC00011242F933F934F935F936F937F938F9353
:100AD0009F93AF93BF93EF93FF93E0910201F09147
:100AE00003010995FF91EF91BF91AF919F918F9174
:100AF0007F916F915F914F913F912F910F900FBE1A
:100B00000F901F9018951F920F920FB60F921124FD
:100B10002F933F934F935F936F937F938F939F9305
:100B2000AF93BF93EF93FF93E0910001F091010128
:100B30000995FF91EF91BF91AF919F918F917F9117
:100B40006F915F914F913F912F910F900FBE0F903A
:100B50001F901895E8E4F5E08AE091E091838083A6
:100B600080E191E0938382830895CF93DF93C8E47B
:100B7000D5E086E191E09B838A8310921A028DE191
:100B800092E09093400580933F051C868AE495E0AF
:100B90000E941B036EE271E0CE010E94AA0580E272
:100BA00091E09983888386E291E09B838A83DF9139
:100BB000CF910895E6E7F1E01382128288EE93E088
:100BC000A0E0B0E084839583A683B78386E391E0B9
:100BD0009183808385EC90E09587848784EC90E016
:100BE0009787868780EC90E0918B808B81EC90E0FA
:100BF000938B828B82EC90E0958B848B86EC90E0DB
:100C0000978B868B118E128E138E148EA7E5B5E00E
:100C100088E491E011969C938E93E3E1F2E01782D1
:100C20008DE192E09093400580933F05118288E723
:100C30009EE1938382838CE990E09583848382E3B1
:100C400090E013969C938E9312971086168284E000
:100C50008093470581E014968C9383E0808388E439
:100C600095E00C94B505CF93DF93CDB7DEB76E97C3
:100C70000FB6F894DEBF0FBECDBF789484B5826006
:100C800084BD84B5816084BD85B5826085BD85B530
:100C9000816085BD80916E00816080936E001092AE
:100CA0008100809181008260809381008091810029
:100CB00081608093810080918000816080938000BA
:100CC0008091B10084608093B1008091B000816018
:100CD0008093B00080917A00846080937A00809144
:100CE0007A00826080937A0080917A00816080939C
:100CF0007A0080917A00806880937A001092C10017
:100D0000E0918601F091870182E08083E091820189
:100D1000F09183011082E0918401F09185018FECC4
:100D2000808310928E01E0918A01F0918B0186E020
:100D30008083E0918801F0918901808180618083C6
:100D4000E0918801F0918901808188608083E09141
:100D50008801F0918901808180688083E091880119
:100D6000F091890180818F7D80838CE790E00E94E3
:100D70003D028CE491E00E94AD0386E791E00E9481
:100D8000AE0118161906A4F486E791E00E948C01C2
:100D90008133910509F034C187E595E00E94400355
:100DA0008FE491E00E94AD038CE491E00E94AD03DA
:100DB00080911B02882309F42BC10E940D01E09150
:100DC0004805F09149053897808191819C01285B05
:100DD0003A4F1901D901ED91FC91369780819181AB
:100DE000820F931FDC01ED91FC910190F081E02DC9
:100DF00009952091410530914205F1018081918151
:100E00002430310509F031C1E0913F05F0914005F2
:100E10002281338120573A41213A314108F025C1DE
:100E2000248135812C5936402936344008F01DC1C3
:100E300026813781275A31402B31314008F015C1C6
:100E40000697DC01ED91FC91E20DF31D1186D101B5
:100E5000ED91FC9136970190F081E02DE20DF31DAC
:100E60008FEF9FEFDC0183839483A583B68381E0BA
:100E7000828380914C058D508D3408F477C089E0D1
:100E800091E00E943D02E0914C0588ED90E0EA354A
:100E900008F042C0ED3008F0E0E020ED30E03A83A9
:100EA00029838CEC90E09C838B83A7ECB0E0BE831D
:100EB000AD8323EC30E038872F838FEB90E09A8767
:100EC0008987A1EBB0E0BC87AB872DEA30E03E8795
:100ED0002D8788EA90E0988B8F87AEE9B0E0BA8BD7
:100EE000A98B24E930E03C8B2B8B8CE890E09E8B27
:100EF0008D8B87E890E0988F8F8B82E890E09A8FB7
:100F0000898FF0E0EE0FFF1F81E090E08C0F9D1FB6
:100F1000E80FF91F808191810E943D0287E091E0F6
:100F20000E943D0260914C0570E090E080E04AE054
:100F30000E94BA038DEF90E00E943D0260914D0542
:100F400070914E0580914F059091500540E10E94AF
:100F5000BA0386EF90E00E943D02609151057091C6
:100F6000520590E080E040E10E94BA0383EF90E0F8
:100F70000E943D026091530570E090E080E04AE0FD
:100F80000E94BA038BEE90E00E943D0280911C0209
:100F9000882321F08EED90E00E943D028CE491E0E8
:100FA0000E94AD0386E591E00E94AD0360913D058E
:100FB00070913E0590E080E04AE00E94BA0388E626
:100FC00091E00E94AD0301E010E080913D05909119
:100FD0003E050817190708F00FC1F801EE0FFF1FB3
:100FE000E35EFD4F6081718190E080E04AE00E9405
:100FF000BA0389E191E00E943D020F5F1F4FE5CFE8
:10100000C09709F0D5CE87E595E00E942503D0CEA4
:1010100080914705853009F0FBC0809113020E9442
:10102000CC02892B09F4F4C0F894C0904305D09009
:101030004405E0904505F090460578940E94F5023D
:10104000AB01BC014C195D096E097F098091150245
:1010500090911602B0E0A0E084179507A607B707A5
:1010600008F0D6C00E94FE03A8CE0697DC014D9082
:101070005C90420C531CD201ED91FC910190F081E7
:10108000E02DC2010995E0904105F0904205809164
:101090004105909142058434910509F0EACEE09132
:1010A0003F05F0914005FC8FEB8FD2011A968C9191
:1010B000811109C08281938160E473E20E94DC00A7
:1010C000882309F4D6CEEB8DFC8D8481958160EA6E
:1010D00071E10E94DC00882309F4CBCE83E090E02C
:1010E000D2011C969C938E931B97A12CB12CC12CE2
:1010F000D12C00E010E0612C712CF7013197FE8FAC
:10110000ED8FD2011B96ED90FC90ED8DFE8DEE16CD
:10111000FF0608F051C04701880C991CEB8DFC8D2F
:10112000E80DF91D8081918164E372E00E94DC008A
:10113000882309F49ECEC7010196D2011C969C9388
:101140008E931B97B2E08B0E911CEB8DFC8D8E0E57
:101150009F1ED4018D919C916CE976E00E94DC0089
:101160008823B9F09501A601B801C30101E00E94EE
:10117000610AA22E6894A0F8B32E6A018B013C018B
:10118000F2E0EF0EF11CD2011C96FC92EE921B973E
:10119000B8CFF4018081918164E372E00E94DC00A9
:1011A000882309F466CE9501A601B801C30101E0C8
:1011B0000E94610AA22EE0CFB1E0EB1AF108F6948A
:1011C000E794EA94F201E1869501A601A3823483B3
:1011D000C5825683B801C30100E20E947C0A2783BE
:1011E0003087D101ED91FC91369780819181280E55
:1011F000391E81E0F1013CCE82E191E00E943D0286
:101200008CE491E00E94AD0387E595E00E944003E5
:1012100080E090E0892B09F4B0CD0E94BA018823C8
:1012200009F4ABCD0E940000A8CD0E94890988F086
:101230009F5798F0B92F9927B751B0F0E1F0660F9A
:10124000771F881F991F1AF0BA95C9F714C0B130DB
:1012500091F00E94A309B1E008950C94A309672FAF
:10126000782F8827B85F39F0B93FCCF3869577950A
:101270006795B395D9F73EF49095809570956195F3
:101280007F4F8F4F9F4F0895E89409C097FB3EF41E
:1012900090958095709561957F4F8F4F9F4F9923C3
:1012A000A9F0F92F96E9BB279395F6958795779541
:1012B0006795B795F111F8CFFAF4BB0F11F460FF01
:1012C0001BC06F5F7F4F8F4F9F4F16C0882311F059
:1012D00096E911C0772321F09EE8872F762F05C06D
:1012E000662371F096E8862F70E060E02AF09A9508
:1012F000660F771F881FDAF7880F9695879597F9FD
:10130000089557FD9058440F551F59F05F3F71F0F5
:101310004795880F97FB991F61F09F3F79F087955C
:101320000895121613061406551FF2CF4695F1DFE5
:1013300008C0161617061806991FF1CF8695710575
:10134000610508940895E894BB2766277727CB01A9
:1013500097F908950E94BD090C942E0A0E94200A54
:1013600038F00E94270A20F0952311F00C94170AF8
:101370000C941D0A11240C94A4090E94810970F395
:10138000959FC1F3950F50E0551F629FF001729F2A
:10139000BB27F00DB11D639FAA27F00DB11DAA1F39
:1013A000649F6627B00DA11D661F829F2227B00D86
:1013B000A11D621F739FB00DA11D621F839FA00D11
:1013C000611D221F749F3327A00D611D231F849F61
:1013D000600D211D822F762F6A2F11249F575040B8
:1013E0009AF0F1F088234AF0EE0FFF1FBB1F661F33
:1013F000771F881F91505040A9F79E3F510580F0FC
:101400000C94170A0C94A4095F3FE4F3983ED4F3BC
:10141000869577956795B795F795E7959F5FC1F79F
:10142000FE2B880F911D9695879597F9089597F94A
:101430009F6780E870E060E008959FEF80EC08957A
:1014400000240A94161617061806090608950024A3
:101450000A9412161306140605060895092E03941D
:10146000000C11F4882352F0BB0F40F4BF2B11F491
:1014700060FF04C06F5F7F4F8F4F9F4F0895A1E2C1
:101480001A2EAA1BBB1BFD010DC0AA1FBB1FEE1FFE
:10149000FF1FA217B307E407F50720F0A21BB30B49
:1014A000E40BF50B661F771F881F991F1A9469F7C5
:1014B00060957095809590959B01AC01BD01CF0121
:1014C0000895002E083090F0982F872F762F652FE3
:1014D000542F432F322F22270850F4CF220F331FCF
:1014E000441F551F661F771F881F991F0A95B2F763
:1014F000002D089597FD1094002E083098F00850A4
:10150000232F342F452F562F672F782F892F912D7A
:10151000F4CF159497958795779567955795479547
:10152000379527950A95AAF71124002D0895EE0FF7
:10153000FF1F0590F491E02D0994FB01DC0102C02E
:1015400001900D9241505040D8F70895F894FFCF84
:101550001A031A030200000000000000FEFF000052
:101560001B03000000001B0300000200000000003D
:101570000000FEFF00001B032001200126010A01DC
:10158000100100000000F00150017D015802AE0181
:101590008C01A00100000000400325030D0A004C4F
:1015A000697374656E0075696E7431365F7420728C
:0C15B0006177446174615B005D3D7B006D
:107E0000112484B714BE81FFF0D085E080938100F7
:107E100082E08093C00088E18093C10086E0809377
:107E2000C20080E18093C4008EE0C9D0259A86E02C
:107E300020E33CEF91E0309385002093840096BBD3
:107E4000B09BFECF1D9AA8958150A9F7CC24DD24C4
:107E500088248394B5E0AB2EA1E19A2EF3E0BF2EE7
:107E6000A2D0813461F49FD0082FAFD0023811F036
:107E7000013811F484E001C083E08DD089C08234E0
:107E800011F484E103C0853419F485E0A6D080C0E4
:107E9000853579F488D0E82EFF2485D0082F10E0AE
:107EA000102F00270E291F29000F111F8ED06801E7
:107EB0006FC0863521F484E090D080E0DECF843638
:107EC00009F040C070D06FD0082F6DD080E0C81688
:107ED00080E7D80618F4F601B7BEE895C0E0D1E017
:107EE00062D089930C17E1F7F0E0CF16F0E7DF06D8
:107EF00018F0F601B7BEE89568D007B600FCFDCFD4
:107F0000A601A0E0B1E02C9130E011968C91119780
:107F100090E0982F8827822B932B1296FA010C0160
:107F200087BEE89511244E5F5F4FF1E0A038BF0790
:107F300051F7F601A7BEE89507B600FCFDCF97BE46
:107F4000E89526C08437B1F42ED02DD0F82E2BD052
:107F50003CD0F601EF2C8F010F5F1F4F84911BD097
:107F6000EA94F801C1F70894C11CD11CFA94CF0C13
:107F7000D11C0EC0853739F428D08EE10CD085E9AC
:107F80000AD08FE07ACF813511F488E018D01DD067
:107F900080E101D065CF982F8091C00085FFFCCF94
:107FA0009093C60008958091C00087FFFCCF809118
:107FB000C00084FD01C0A8958091C6000895E0E648
:107FC000F0E098E1908380830895EDDF803219F02E
:107FD00088E0F5DFFFCF84E1DECF1F93182FE3DFCA
:107FE0001150E9F7F2DF1F91089580E0E8DFEE27F6
:047FF000FF270994CA
:027FFE00040479
:00000001FF
